{
  "_format": "hh-sol-artifact-1",
  "contractName": "Host",
  "sourceName": "contracts/Host.sol",
  "abi": [
    {
      "inputs": [
        {
          "internalType": "address",
          "name": "_child",
          "type": "address"
        },
        {
          "internalType": "string",
          "name": "_username",
          "type": "string"
        }
      ],
      "name": "addMember",
      "outputs": [],
      "stateMutability": "nonpayable",
      "type": "function"
    },
    {
      "inputs": [
        {
          "internalType": "address",
          "name": "_child",
          "type": "address"
        }
      ],
      "name": "changeAccess",
      "outputs": [],
      "stateMutability": "nonpayable",
      "type": "function"
    },
    {
      "inputs": [],
      "name": "createParent",
      "outputs": [],
      "stateMutability": "nonpayable",
      "type": "function"
    },
    {
      "inputs": [],
      "name": "fetchChildren",
      "outputs": [
        {
          "components": [
            {
              "internalType": "address",
              "name": "_address",
              "type": "address"
            },
            {
              "internalType": "string",
              "name": "username",
              "type": "string"
            },
            {
              "internalType": "enum Host.Access",
              "name": "access",
              "type": "uint8"
            }
          ],
          "internalType": "struct Host.Child[]",
          "name": "",
          "type": "tuple[]"
        }
      ],
      "stateMutability": "view",
      "type": "function"
    },
    {
      "inputs": [
        {
          "internalType": "address",
          "name": "_user",
          "type": "address"
        }
      ],
      "name": "getUserType",
      "outputs": [
        {
          "internalType": "uint256",
          "name": "",
          "type": "uint256"
        }
      ],
      "stateMutability": "view",
      "type": "function"
    }
  ],
  "bytecode": "0x608060405234801561001057600080fd5b50611604806100206000396000f3fe608060405234801561001057600080fd5b50600436106100575760003560e01c80638b3f863f1461005c578063a902b3ad1461008c578063b2f0914914610096578063c127c247146100b4578063f403688a146100d0575b600080fd5b61007660048036038101906100719190610e95565b6100ec565b6040516100839190610edb565b60405180910390f35b6100946101ae565b005b61009e610374565b6040516100ab9190611127565b60405180910390f35b6100ce60048036038101906100c9919061127e565b61068f565b005b6100ea60048036038101906100e59190610e95565b610b4b565b005b6000600460008373ffffffffffffffffffffffffffffffffffffffff1673ffffffffffffffffffffffffffffffffffffffff16815260200190815260200160002060009054906101000a900460ff161561014957600190506101a9565b600560008373ffffffffffffffffffffffffffffffffffffffff1673ffffffffffffffffffffffffffffffffffffffff16815260200190815260200160002060009054906101000a900460ff16156101a457600290506101a9565b600390505b919050565b600460003373ffffffffffffffffffffffffffffffffffffffff1673ffffffffffffffffffffffffffffffffffffffff16815260200190815260200160002060009054906101000a900460ff161561023b576040517f08c379a00000000000000000000000000000000000000000000000000000000081526004016102329061135d565b60405180910390fd5b600060405180604001604052803373ffffffffffffffffffffffffffffffffffffffff168152602001600060ff16815250905080600260003373ffffffffffffffffffffffffffffffffffffffff1673ffffffffffffffffffffffffffffffffffffffff16815260200190815260200160002060008201518160000160006101000a81548173ffffffffffffffffffffffffffffffffffffffff021916908373ffffffffffffffffffffffffffffffffffffffff16021790555060208201518160000160146101000a81548160ff021916908360ff1602179055509050506001600460003373ffffffffffffffffffffffffffffffffffffffff1673ffffffffffffffffffffffffffffffffffffffff16815260200190815260200160002060006101000a81548160ff02191690831515021790555050565b6060600460003373ffffffffffffffffffffffffffffffffffffffff1673ffffffffffffffffffffffffffffffffffffffff16815260200190815260200160002060009054906101000a900460ff16610402576040517f08c379a00000000000000000000000000000000000000000000000000000000081526004016103f9906113ef565b60405180910390fd5b6000600260003373ffffffffffffffffffffffffffffffffffffffff1673ffffffffffffffffffffffffffffffffffffffff16815260200190815260200160002060000160149054906101000a900460ff16905060008160ff1667ffffffffffffffff81111561047557610474611153565b5b6040519080825280602002602001820160405280156104ae57816020015b61049b610d37565b8152602001906001900390816104935790505b50905060005b8260ff168160ff16101561068657600360003373ffffffffffffffffffffffffffffffffffffffff1673ffffffffffffffffffffffffffffffffffffffff1681526020019081526020016000206000600183610510919061144b565b60ff1660ff1681526020019081526020016000206040518060600160405290816000820160009054906101000a900473ffffffffffffffffffffffffffffffffffffffff1673ffffffffffffffffffffffffffffffffffffffff1673ffffffffffffffffffffffffffffffffffffffff168152602001600182018054610595906114b1565b80601f01602080910402602001604051908101604052809291908181526020018280546105c1906114b1565b801561060e5780601f106105e35761010080835404028352916020019161060e565b820191906000526020600020905b8154815290600101906020018083116105f157829003601f168201915b505050505081526020016002820160009054906101000a900460ff16600181111561063c5761063b610fca565b5b600181111561064e5761064d610fca565b5b81525050828260ff1681518110610668576106676114e3565b5b6020026020010181905250808061067e90611512565b9150506104b4565b50809250505090565b600460003373ffffffffffffffffffffffffffffffffffffffff1673ffffffffffffffffffffffffffffffffffffffff16815260200190815260200160002060009054906101000a900460ff1661071b576040517f08c379a0000000000000000000000000000000000000000000000000000000008152600401610712906113ef565b60405180910390fd5b600560008373ffffffffffffffffffffffffffffffffffffffff1673ffffffffffffffffffffffffffffffffffffffff16815260200190815260200160002060009054906101000a900460ff16156107a8576040517f08c379a000000000000000000000000000000000000000000000000000000000815260040161079f906115ae565b60405180910390fd5b600060405180606001604052808473ffffffffffffffffffffffffffffffffffffffff168152602001838152602001600060018111156107eb576107ea610fca565b5b815250905060006001600260003373ffffffffffffffffffffffffffffffffffffffff1673ffffffffffffffffffffffffffffffffffffffff16815260200190815260200160002060000160149054906101000a900460ff1661084e919061144b565b905080600260003373ffffffffffffffffffffffffffffffffffffffff1673ffffffffffffffffffffffffffffffffffffffff16815260200190815260200160002060000160146101000a81548160ff021916908360ff1602179055506001600560008673ffffffffffffffffffffffffffffffffffffffff1673ffffffffffffffffffffffffffffffffffffffff16815260200190815260200160002060006101000a81548160ff021916908315150217905550336000808673ffffffffffffffffffffffffffffffffffffffff1673ffffffffffffffffffffffffffffffffffffffff16815260200190815260200160002060006101000a81548173ffffffffffffffffffffffffffffffffffffffff021916908373ffffffffffffffffffffffffffffffffffffffff16021790555081600160008673ffffffffffffffffffffffffffffffffffffffff1673ffffffffffffffffffffffffffffffffffffffff16815260200190815260200160002060008201518160000160006101000a81548173ffffffffffffffffffffffffffffffffffffffff021916908373ffffffffffffffffffffffffffffffffffffffff1602179055506020820151816001019080519060200190610a23929190610d80565b5060408201518160020160006101000a81548160ff02191690836001811115610a4f57610a4e610fca565b5b021790555090505081600360003373ffffffffffffffffffffffffffffffffffffffff1673ffffffffffffffffffffffffffffffffffffffff16815260200190815260200160002060008360ff1660ff16815260200190815260200160002060008201518160000160006101000a81548173ffffffffffffffffffffffffffffffffffffffff021916908373ffffffffffffffffffffffffffffffffffffffff1602179055506020820151816001019080519060200190610b11929190610d80565b5060408201518160020160006101000a81548160ff02191690836001811115610b3d57610b3c610fca565b5b021790555090505050505050565b600460003373ffffffffffffffffffffffffffffffffffffffff1673ffffffffffffffffffffffffffffffffffffffff16815260200190815260200160002060009054906101000a900460ff16610bd7576040517f08c379a0000000000000000000000000000000000000000000000000000000008152600401610bce906113ef565b60405180910390fd5b6000600160008373ffffffffffffffffffffffffffffffffffffffff1673ffffffffffffffffffffffffffffffffffffffff16815260200190815260200160002060020160009054906101000a900460ff16905060006001811115610c3f57610c3e610fca565b5b816001811115610c5257610c51610fca565b5b1415610cc75760018060008473ffffffffffffffffffffffffffffffffffffffff1673ffffffffffffffffffffffffffffffffffffffff16815260200190815260200160002060020160006101000a81548160ff02191690836001811115610cbd57610cbc610fca565b5b0217905550610d33565b6000600160008473ffffffffffffffffffffffffffffffffffffffff1673ffffffffffffffffffffffffffffffffffffffff16815260200190815260200160002060020160006101000a81548160ff02191690836001811115610d2d57610d2c610fca565b5b02179055505b5050565b6040518060600160405280600073ffffffffffffffffffffffffffffffffffffffff1681526020016060815260200160006001811115610d7a57610d79610fca565b5b81525090565b828054610d8c906114b1565b90600052602060002090601f016020900481019282610dae5760008555610df5565b82601f10610dc757805160ff1916838001178555610df5565b82800160010185558215610df5579182015b82811115610df4578251825591602001919060010190610dd9565b5b509050610e029190610e06565b5090565b5b80821115610e1f576000816000905550600101610e07565b5090565b6000604051905090565b600080fd5b600080fd5b600073ffffffffffffffffffffffffffffffffffffffff82169050919050565b6000610e6282610e37565b9050919050565b610e7281610e57565b8114610e7d57600080fd5b50565b600081359050610e8f81610e69565b92915050565b600060208284031215610eab57610eaa610e2d565b5b6000610eb984828501610e80565b91505092915050565b6000819050919050565b610ed581610ec2565b82525050565b6000602082019050610ef06000830184610ecc565b92915050565b600081519050919050565b600082825260208201905092915050565b6000819050602082019050919050565b610f2b81610e57565b82525050565b600081519050919050565b600082825260208201905092915050565b60005b83811015610f6b578082015181840152602081019050610f50565b83811115610f7a576000848401525b50505050565b6000601f19601f8301169050919050565b6000610f9c82610f31565b610fa68185610f3c565b9350610fb6818560208601610f4d565b610fbf81610f80565b840191505092915050565b7f4e487b7100000000000000000000000000000000000000000000000000000000600052602160045260246000fd5b6002811061100a57611009610fca565b5b50565b600081905061101b82610ff9565b919050565b600061102b8261100d565b9050919050565b61103b81611020565b82525050565b60006060830160008301516110596000860182610f22565b50602083015184820360208601526110718282610f91565b91505060408301516110866040860182611032565b508091505092915050565b600061109d8383611041565b905092915050565b6000602082019050919050565b60006110bd82610ef6565b6110c78185610f01565b9350836020820285016110d985610f12565b8060005b8581101561111557848403895281516110f68582611091565b9450611101836110a5565b925060208a019950506001810190506110dd565b50829750879550505050505092915050565b6000602082019050818103600083015261114181846110b2565b905092915050565b600080fd5b600080fd5b7f4e487b7100000000000000000000000000000000000000000000000000000000600052604160045260246000fd5b61118b82610f80565b810181811067ffffffffffffffff821117156111aa576111a9611153565b5b80604052505050565b60006111bd610e23565b90506111c98282611182565b919050565b600067ffffffffffffffff8211156111e9576111e8611153565b5b6111f282610f80565b9050602081019050919050565b82818337600083830152505050565b600061122161121c846111ce565b6111b3565b90508281526020810184848401111561123d5761123c61114e565b5b6112488482856111ff565b509392505050565b600082601f83011261126557611264611149565b5b813561127584826020860161120e565b91505092915050565b6000806040838503121561129557611294610e2d565b5b60006112a385828601610e80565b925050602083013567ffffffffffffffff8111156112c4576112c3610e32565b5b6112d085828601611250565b9150509250929050565b600082825260208201905092915050565b7f596f752061726520616c7265616479207265676973746572656420617320612060008201527f706172656e740000000000000000000000000000000000000000000000000000602082015250565b60006113476026836112da565b9150611352826112eb565b604082019050919050565b600060208201905081810360008301526113768161133a565b9050919050565b7f4f6e6c79206120706172656e742063616e206d616b652074686973207265717560008201527f6573740000000000000000000000000000000000000000000000000000000000602082015250565b60006113d96023836112da565b91506113e48261137d565b604082019050919050565b60006020820190508181036000830152611408816113cc565b9050919050565b600060ff82169050919050565b7f4e487b7100000000000000000000000000000000000000000000000000000000600052601160045260246000fd5b60006114568261140f565b91506114618361140f565b92508260ff038211156114775761147661141c565b5b828201905092915050565b7f4e487b7100000000000000000000000000000000000000000000000000000000600052602260045260246000fd5b600060028204905060018216806114c957607f821691505b602082108114156114dd576114dc611482565b5b50919050565b7f4e487b7100000000000000000000000000000000000000000000000000000000600052603260045260246000fd5b600061151d8261140f565b915060ff8214156115315761153061141c565b5b600182019050919050565b7f4368696c6420697320616c7265616479207265676973746572656420746f206160008201527f2066616d696c7900000000000000000000000000000000000000000000000000602082015250565b60006115986027836112da565b91506115a38261153c565b604082019050919050565b600060208201905081810360008301526115c78161158b565b905091905056fea2646970667358221220a98442d10ede7e3340f7e7d716c8b81b03e66da8dba0e0140178895f7a3152b764736f6c634300080a0033",
  "linkReferences": {},
  "deployedLinkReferences": {}
}